{
  "address": "0x3ff5402a7Fc538e7fAf7ECC792F793404E4E07D3",
  "abi": [
    {
      "inputs": [
        {
          "internalType": "string",
          "name": "_uri",
          "type": "string"
        }
      ],
      "stateMutability": "nonpayable",
      "type": "constructor"
    },
    {
      "inputs": [],
      "name": "InvalidShortString",
      "type": "error"
    },
    {
      "inputs": [
        {
          "internalType": "string",
          "name": "str",
          "type": "string"
        }
      ],
      "name": "StringTooLong",
      "type": "error"
    },
    {
      "anonymous": false,
      "inputs": [
        {
          "indexed": true,
          "internalType": "address",
          "name": "owner",
          "type": "address"
        },
        {
          "indexed": true,
          "internalType": "address",
          "name": "approved",
          "type": "address"
        },
        {
          "indexed": true,
          "internalType": "uint256",
          "name": "tokenId",
          "type": "uint256"
        }
      ],
      "name": "Approval",
      "type": "event"
    },
    {
      "anonymous": false,
      "inputs": [
        {
          "indexed": true,
          "internalType": "address",
          "name": "owner",
          "type": "address"
        },
        {
          "indexed": true,
          "internalType": "address",
          "name": "operator",
          "type": "address"
        },
        {
          "indexed": false,
          "internalType": "bool",
          "name": "approved",
          "type": "bool"
        }
      ],
      "name": "ApprovalForAll",
      "type": "event"
    },
    {
      "anonymous": false,
      "inputs": [
        {
          "indexed": false,
          "internalType": "uint256",
          "name": "_fromTokenId",
          "type": "uint256"
        },
        {
          "indexed": false,
          "internalType": "uint256",
          "name": "_toTokenId",
          "type": "uint256"
        }
      ],
      "name": "BatchMetadataUpdate",
      "type": "event"
    },
    {
      "anonymous": false,
      "inputs": [
        {
          "indexed": true,
          "internalType": "address",
          "name": "delegator",
          "type": "address"
        },
        {
          "indexed": true,
          "internalType": "address",
          "name": "fromDelegate",
          "type": "address"
        },
        {
          "indexed": true,
          "internalType": "address",
          "name": "toDelegate",
          "type": "address"
        }
      ],
      "name": "DelegateChanged",
      "type": "event"
    },
    {
      "anonymous": false,
      "inputs": [
        {
          "indexed": true,
          "internalType": "address",
          "name": "delegate",
          "type": "address"
        },
        {
          "indexed": false,
          "internalType": "uint256",
          "name": "previousBalance",
          "type": "uint256"
        },
        {
          "indexed": false,
          "internalType": "uint256",
          "name": "newBalance",
          "type": "uint256"
        }
      ],
      "name": "DelegateVotesChanged",
      "type": "event"
    },
    {
      "anonymous": false,
      "inputs": [],
      "name": "EIP712DomainChanged",
      "type": "event"
    },
    {
      "anonymous": false,
      "inputs": [
        {
          "indexed": false,
          "internalType": "uint256",
          "name": "_tokenId",
          "type": "uint256"
        }
      ],
      "name": "MetadataUpdate",
      "type": "event"
    },
    {
      "anonymous": false,
      "inputs": [
        {
          "indexed": true,
          "internalType": "address",
          "name": "previousOwner",
          "type": "address"
        },
        {
          "indexed": true,
          "internalType": "address",
          "name": "newOwner",
          "type": "address"
        }
      ],
      "name": "OwnershipTransferred",
      "type": "event"
    },
    {
      "anonymous": false,
      "inputs": [
        {
          "indexed": true,
          "internalType": "address",
          "name": "from",
          "type": "address"
        },
        {
          "indexed": true,
          "internalType": "address",
          "name": "to",
          "type": "address"
        },
        {
          "indexed": true,
          "internalType": "uint256",
          "name": "tokenId",
          "type": "uint256"
        }
      ],
      "name": "Transfer",
      "type": "event"
    },
    {
      "inputs": [],
      "name": "CLOCK_MODE",
      "outputs": [
        {
          "internalType": "string",
          "name": "",
          "type": "string"
        }
      ],
      "stateMutability": "view",
      "type": "function"
    },
    {
      "inputs": [],
      "name": "DOMAIN_SEPARATOR",
      "outputs": [
        {
          "internalType": "bytes32",
          "name": "",
          "type": "bytes32"
        }
      ],
      "stateMutability": "view",
      "type": "function"
    },
    {
      "inputs": [
        {
          "internalType": "address",
          "name": "to",
          "type": "address"
        },
        {
          "internalType": "uint256",
          "name": "tokenId",
          "type": "uint256"
        }
      ],
      "name": "approve",
      "outputs": [],
      "stateMutability": "nonpayable",
      "type": "function"
    },
    {
      "inputs": [
        {
          "internalType": "address",
          "name": "owner",
          "type": "address"
        }
      ],
      "name": "balanceOf",
      "outputs": [
        {
          "internalType": "uint256",
          "name": "",
          "type": "uint256"
        }
      ],
      "stateMutability": "view",
      "type": "function"
    },
    {
      "inputs": [
        {
          "internalType": "uint256",
          "name": "tokenId",
          "type": "uint256"
        }
      ],
      "name": "burn",
      "outputs": [],
      "stateMutability": "nonpayable",
      "type": "function"
    },
    {
      "inputs": [],
      "name": "clock",
      "outputs": [
        {
          "internalType": "uint48",
          "name": "",
          "type": "uint48"
        }
      ],
      "stateMutability": "view",
      "type": "function"
    },
    {
      "inputs": [
        {
          "internalType": "address",
          "name": "delegatee",
          "type": "address"
        }
      ],
      "name": "delegate",
      "outputs": [],
      "stateMutability": "nonpayable",
      "type": "function"
    },
    {
      "inputs": [
        {
          "internalType": "address",
          "name": "delegatee",
          "type": "address"
        },
        {
          "internalType": "uint256",
          "name": "nonce",
          "type": "uint256"
        },
        {
          "internalType": "uint256",
          "name": "expiry",
          "type": "uint256"
        },
        {
          "internalType": "uint8",
          "name": "v",
          "type": "uint8"
        },
        {
          "internalType": "bytes32",
          "name": "r",
          "type": "bytes32"
        },
        {
          "internalType": "bytes32",
          "name": "s",
          "type": "bytes32"
        }
      ],
      "name": "delegateBySig",
      "outputs": [],
      "stateMutability": "nonpayable",
      "type": "function"
    },
    {
      "inputs": [
        {
          "internalType": "address",
          "name": "account",
          "type": "address"
        }
      ],
      "name": "delegates",
      "outputs": [
        {
          "internalType": "address",
          "name": "",
          "type": "address"
        }
      ],
      "stateMutability": "view",
      "type": "function"
    },
    {
      "inputs": [],
      "name": "eip712Domain",
      "outputs": [
        {
          "internalType": "bytes1",
          "name": "fields",
          "type": "bytes1"
        },
        {
          "internalType": "string",
          "name": "name",
          "type": "string"
        },
        {
          "internalType": "string",
          "name": "version",
          "type": "string"
        },
        {
          "internalType": "uint256",
          "name": "chainId",
          "type": "uint256"
        },
        {
          "internalType": "address",
          "name": "verifyingContract",
          "type": "address"
        },
        {
          "internalType": "bytes32",
          "name": "salt",
          "type": "bytes32"
        },
        {
          "internalType": "uint256[]",
          "name": "extensions",
          "type": "uint256[]"
        }
      ],
      "stateMutability": "view",
      "type": "function"
    },
    {
      "inputs": [
        {
          "internalType": "uint256",
          "name": "tokenId",
          "type": "uint256"
        }
      ],
      "name": "getApproved",
      "outputs": [
        {
          "internalType": "address",
          "name": "",
          "type": "address"
        }
      ],
      "stateMutability": "view",
      "type": "function"
    },
    {
      "inputs": [
        {
          "internalType": "uint256",
          "name": "timepoint",
          "type": "uint256"
        }
      ],
      "name": "getPastTotalSupply",
      "outputs": [
        {
          "internalType": "uint256",
          "name": "",
          "type": "uint256"
        }
      ],
      "stateMutability": "view",
      "type": "function"
    },
    {
      "inputs": [
        {
          "internalType": "address",
          "name": "account",
          "type": "address"
        },
        {
          "internalType": "uint256",
          "name": "timepoint",
          "type": "uint256"
        }
      ],
      "name": "getPastVotes",
      "outputs": [
        {
          "internalType": "uint256",
          "name": "",
          "type": "uint256"
        }
      ],
      "stateMutability": "view",
      "type": "function"
    },
    {
      "inputs": [],
      "name": "getSubscriptionOwner",
      "outputs": [
        {
          "internalType": "address",
          "name": "",
          "type": "address"
        }
      ],
      "stateMutability": "view",
      "type": "function"
    },
    {
      "inputs": [
        {
          "internalType": "address",
          "name": "account",
          "type": "address"
        }
      ],
      "name": "getVotes",
      "outputs": [
        {
          "internalType": "uint256",
          "name": "",
          "type": "uint256"
        }
      ],
      "stateMutability": "view",
      "type": "function"
    },
    {
      "inputs": [
        {
          "internalType": "address",
          "name": "owner",
          "type": "address"
        },
        {
          "internalType": "address",
          "name": "operator",
          "type": "address"
        }
      ],
      "name": "isApprovedForAll",
      "outputs": [
        {
          "internalType": "bool",
          "name": "",
          "type": "bool"
        }
      ],
      "stateMutability": "view",
      "type": "function"
    },
    {
      "inputs": [],
      "name": "name",
      "outputs": [
        {
          "internalType": "string",
          "name": "",
          "type": "string"
        }
      ],
      "stateMutability": "view",
      "type": "function"
    },
    {
      "inputs": [
        {
          "internalType": "address",
          "name": "owner",
          "type": "address"
        }
      ],
      "name": "nonces",
      "outputs": [
        {
          "internalType": "uint256",
          "name": "",
          "type": "uint256"
        }
      ],
      "stateMutability": "view",
      "type": "function"
    },
    {
      "inputs": [],
      "name": "owner",
      "outputs": [
        {
          "internalType": "address",
          "name": "",
          "type": "address"
        }
      ],
      "stateMutability": "view",
      "type": "function"
    },
    {
      "inputs": [
        {
          "internalType": "uint256",
          "name": "tokenId",
          "type": "uint256"
        }
      ],
      "name": "ownerOf",
      "outputs": [
        {
          "internalType": "address",
          "name": "",
          "type": "address"
        }
      ],
      "stateMutability": "view",
      "type": "function"
    },
    {
      "inputs": [],
      "name": "renounceOwnership",
      "outputs": [],
      "stateMutability": "nonpayable",
      "type": "function"
    },
    {
      "inputs": [],
      "name": "safeMint",
      "outputs": [],
      "stateMutability": "nonpayable",
      "type": "function"
    },
    {
      "inputs": [
        {
          "internalType": "address",
          "name": "from",
          "type": "address"
        },
        {
          "internalType": "address",
          "name": "to",
          "type": "address"
        },
        {
          "internalType": "uint256",
          "name": "tokenId",
          "type": "uint256"
        }
      ],
      "name": "safeTransferFrom",
      "outputs": [],
      "stateMutability": "nonpayable",
      "type": "function"
    },
    {
      "inputs": [
        {
          "internalType": "address",
          "name": "from",
          "type": "address"
        },
        {
          "internalType": "address",
          "name": "to",
          "type": "address"
        },
        {
          "internalType": "uint256",
          "name": "tokenId",
          "type": "uint256"
        },
        {
          "internalType": "bytes",
          "name": "data",
          "type": "bytes"
        }
      ],
      "name": "safeTransferFrom",
      "outputs": [],
      "stateMutability": "nonpayable",
      "type": "function"
    },
    {
      "inputs": [
        {
          "internalType": "address",
          "name": "operator",
          "type": "address"
        },
        {
          "internalType": "bool",
          "name": "approved",
          "type": "bool"
        }
      ],
      "name": "setApprovalForAll",
      "outputs": [],
      "stateMutability": "nonpayable",
      "type": "function"
    },
    {
      "inputs": [
        {
          "internalType": "bytes4",
          "name": "interfaceId",
          "type": "bytes4"
        }
      ],
      "name": "supportsInterface",
      "outputs": [
        {
          "internalType": "bool",
          "name": "",
          "type": "bool"
        }
      ],
      "stateMutability": "view",
      "type": "function"
    },
    {
      "inputs": [],
      "name": "symbol",
      "outputs": [
        {
          "internalType": "string",
          "name": "",
          "type": "string"
        }
      ],
      "stateMutability": "view",
      "type": "function"
    },
    {
      "inputs": [
        {
          "internalType": "uint256",
          "name": "index",
          "type": "uint256"
        }
      ],
      "name": "tokenByIndex",
      "outputs": [
        {
          "internalType": "uint256",
          "name": "",
          "type": "uint256"
        }
      ],
      "stateMutability": "view",
      "type": "function"
    },
    {
      "inputs": [
        {
          "internalType": "address",
          "name": "owner",
          "type": "address"
        },
        {
          "internalType": "uint256",
          "name": "index",
          "type": "uint256"
        }
      ],
      "name": "tokenOfOwnerByIndex",
      "outputs": [
        {
          "internalType": "uint256",
          "name": "",
          "type": "uint256"
        }
      ],
      "stateMutability": "view",
      "type": "function"
    },
    {
      "inputs": [
        {
          "internalType": "uint256",
          "name": "tokenId",
          "type": "uint256"
        }
      ],
      "name": "tokenURI",
      "outputs": [
        {
          "internalType": "string",
          "name": "",
          "type": "string"
        }
      ],
      "stateMutability": "view",
      "type": "function"
    },
    {
      "inputs": [],
      "name": "totalSupply",
      "outputs": [
        {
          "internalType": "uint256",
          "name": "",
          "type": "uint256"
        }
      ],
      "stateMutability": "view",
      "type": "function"
    },
    {
      "inputs": [
        {
          "internalType": "address",
          "name": "from",
          "type": "address"
        },
        {
          "internalType": "address",
          "name": "to",
          "type": "address"
        },
        {
          "internalType": "uint256",
          "name": "tokenId",
          "type": "uint256"
        }
      ],
      "name": "transferFrom",
      "outputs": [],
      "stateMutability": "nonpayable",
      "type": "function"
    },
    {
      "inputs": [
        {
          "internalType": "address",
          "name": "newOwner",
          "type": "address"
        }
      ],
      "name": "transferOwnership",
      "outputs": [],
      "stateMutability": "nonpayable",
      "type": "function"
    },
    {
      "inputs": [],
      "name": "uri",
      "outputs": [
        {
          "internalType": "string",
          "name": "",
          "type": "string"
        }
      ],
      "stateMutability": "view",
      "type": "function"
    }
  ],
  "transactionHash": "0x6f5a9f9e61410a150e136a4dc739eba16b8e49a94b3fb7f76ad6c4b2f22b7453",
  "args": [
    "yo"
  ],
  "numDeployments": 7,
  "solcInputHash": "3111ba1f8a367466f42b6d6cac1b2381",
  "bytecode": "0x6101606040523480156200001257600080fd5b5060405162003a0c38038062003a0c8339810160408190526200003591620002b9565b60408051808201825260098082526814dd1c985d15195cdd60ba1b60208084018290528451808601865260018152603160f81b8183015285518087018752938452838201929092528451808601909552600585526414d514905560da1b9085015291926000620000a6838262000400565b506001620000b5828262000400565b505050620000d2620000cc620001a260201b60201c565b620001a6565b620000df82600c620001f8565b61012052620000f081600d620001f8565b61014052815160208084019190912060e052815190820120610100524660a0526200017e60e05161010051604080517f8b73c3c69bb8fe3d512ecc4cf759cc79239f7b179b0ffacaa9a75d522b39400f60208201529081019290925260608201524660808201523060a082015260009060c00160405160208183030381529060405280519060200120905090565b60805250503060c052600160125560146200019a828262000400565b505062000526565b3390565b600b80546001600160a01b038381166001600160a01b0319831681179093556040519116919082907f8be0079c531659141344cd1fd0a4f28419497f9722a3daafe3b4186f6b6457e090600090a35050565b60006020835110156200021857620002108362000231565b90506200022b565b8162000225848262000400565b5060ff90505b92915050565b600080829050601f8151111562000268578260405163305a27a960e01b81526004016200025f9190620004cc565b60405180910390fd5b8051620002758262000501565b179392505050565b634e487b7160e01b600052604160045260246000fd5b60005b83811015620002b057818101518382015260200162000296565b50506000910152565b600060208284031215620002cc57600080fd5b81516001600160401b0380821115620002e457600080fd5b818401915084601f830112620002f957600080fd5b8151818111156200030e576200030e6200027d565b604051601f8201601f19908116603f011681019083821181831017156200033957620003396200027d565b816040528281528760208487010111156200035357600080fd5b6200036683602083016020880162000293565b979650505050505050565b600181811c908216806200038657607f821691505b602082108103620003a757634e487b7160e01b600052602260045260246000fd5b50919050565b601f821115620003fb57600081815260208120601f850160051c81016020861015620003d65750805b601f850160051c820191505b81811015620003f757828155600101620003e2565b5050505b505050565b81516001600160401b038111156200041c576200041c6200027d565b62000434816200042d845462000371565b84620003ad565b602080601f8311600181146200046c5760008415620004535750858301515b600019600386901b1c1916600185901b178555620003f7565b600085815260208120601f198616915b828110156200049d578886015182559484019460019091019084016200047c565b5085821015620004bc5787850151600019600388901b60f8161c191681555b5050505050600190811b01905550565b6020815260008251806020840152620004ed81604085016020870162000293565b601f01601f19169190910160400192915050565b80516020808301519190811015620003a75760001960209190910360031b1b16919050565b60805160a05160c05160e05161010051610120516101405161348b620005816000396000610bd101526000610ba60152600061132d01526000611305015260006112600152600061128a015260006112b4015261348b6000f3fe608060405234801561001057600080fd5b50600436106102065760003560e01c806370a082311161011a57806395d89b41116100ad578063c3cda5201161007c578063c3cda5201461044b578063c87b56dd1461045e578063e985e9c514610471578063eac989f8146104ad578063f2fde38b146104b557600080fd5b806395d89b411461040a5780639ab24eb014610412578063a22cb46514610425578063b88d4fde1461043857600080fd5b80638da5cb5b116100e95780638da5cb5b146103bf5780638e539e8c146103d057806391ddadf4146103e3578063953584811461040257600080fd5b806370a0823114610376578063715018a6146103895780637ecebe001461039157806384b0196e146103a457600080fd5b80633a46b1a81161019d5780634f6ccce71161016c5780634f6ccce714610309578063587cde1e1461031c5780635c19a95c146103485780636352211e1461035b5780636871ee401461036e57600080fd5b80633a46b1a8146102c857806342842e0e146102db57806342966c68146102ee5780634bf5d7e91461030157600080fd5b806318160ddd116101d957806318160ddd1461028857806323b872dd1461029a5780632f745c59146102ad5780633644e515146102c057600080fd5b806301ffc9a71461020b57806306fdde0314610233578063081812fc14610248578063095ea7b314610273575b600080fd5b61021e610219366004612d1c565b6104c8565b60405190151581526020015b60405180910390f35b61023b6104f3565b60405161022a9190612d89565b61025b610256366004612d9c565b610585565b6040516001600160a01b03909116815260200161022a565b610286610281366004612dd1565b6105ac565b005b6008545b60405190815260200161022a565b6102866102a8366004612dfb565b6106c6565b61028c6102bb366004612dd1565b6106f8565b61028c61078e565b61028c6102d6366004612dd1565b61079d565b6102866102e9366004612dfb565b61082e565b6102866102fc366004612d9c565b610849565b61023b61087a565b61028c610317366004612d9c565b610912565b61025b61032a366004612e37565b6001600160a01b039081166000908152600e60205260409020541690565b610286610356366004612e37565b6109a5565b61025b610369366004612d9c565b6109b4565b610286610a14565b61028c610384366004612e37565b610ae2565b610286610b68565b61028c61039f366004612e37565b610b7a565b6103ac610b98565b60405161022a9796959493929190612e52565b600b546001600160a01b031661025b565b61028c6103de366004612d9c565b610c21565b6103eb610c9b565b60405165ffffffffffff909116815260200161022a565b61025b610ca6565b61023b610cba565b61028c610420366004612e37565b610cc9565b610286610433366004612ee8565b610cea565b610286610446366004612f3a565b610cf5565b610286610459366004613016565b610d2d565b61023b61046c366004612d9c565b610e5a565b61021e61047f366004613076565b6001600160a01b03918216600090815260056020908152604080832093909416825291909152205460ff1690565b61023b610e65565b6102866104c3366004612e37565b610ef3565b60006001600160e01b03198216639535848160e01b14806104ed57506104ed82610f69565b92915050565b606060008054610502906130a9565b80601f016020809104026020016040519081016040528092919081815260200182805461052e906130a9565b801561057b5780601f106105505761010080835404028352916020019161057b565b820191906000526020600020905b81548152906001019060200180831161055e57829003601f168201915b5050505050905090565b600061059082610f8e565b506000908152600460205260409020546001600160a01b031690565b60006105b7826109b4565b9050806001600160a01b0316836001600160a01b0316036106295760405162461bcd60e51b815260206004820152602160248201527f4552433732313a20617070726f76616c20746f2063757272656e74206f776e656044820152603960f91b60648201526084015b60405180910390fd5b336001600160a01b03821614806106455750610645813361047f565b6106b75760405162461bcd60e51b815260206004820152603d60248201527f4552433732313a20617070726f76652063616c6c6572206973206e6f7420746f60448201527f6b656e206f776e6572206f7220617070726f76656420666f7220616c6c0000006064820152608401610620565b6106c18383610fed565b505050565b6106d1335b8261105b565b6106ed5760405162461bcd60e51b8152600401610620906130dd565b6106c18383836110da565b600061070383610ae2565b82106107655760405162461bcd60e51b815260206004820152602b60248201527f455243373231456e756d657261626c653a206f776e657220696e646578206f7560448201526a74206f6620626f756e647360a81b6064820152608401610620565b506001600160a01b03919091166000908152600660209081526040808320938352929052205490565b6000610798611253565b905090565b60006107a7610c9b565b65ffffffffffff1682106107f45760405162461bcd60e51b81526020600482015260146024820152730566f7465733a20667574757265206c6f6f6b75760641b6044820152606401610620565b61081e6108008361137e565b6001600160a01b0385166000908152600f60205260409020906113e7565b6001600160e01b03169392505050565b6106c183838360405180602001604052806000815250610cf5565b610852336106cb565b61086e5760405162461bcd60e51b8152600401610620906130dd565b6108778161149c565b50565b606043610885610c9b565b65ffffffffffff16146108da5760405162461bcd60e51b815260206004820152601860248201527f566f7465733a2062726f6b656e20636c6f636b206d6f646500000000000000006044820152606401610620565b5060408051808201909152601d81527f6d6f64653d626c6f636b6e756d6265722666726f6d3d64656661756c74000000602082015290565b600061091d60085490565b82106109805760405162461bcd60e51b815260206004820152602c60248201527f455243373231456e756d657261626c653a20676c6f62616c20696e646578206f60448201526b7574206f6620626f756e647360a01b6064820152608401610620565b600882815481106109935761099361312a565b90600052602060002001549050919050565b336109b081836114a5565b5050565b6000818152600260205260408120546001600160a01b0316806104ed5760405162461bcd60e51b8152602060048201526018602482015277115490cdcc8c4e881a5b9d985b1a59081d1bdad95b88125160421b6044820152606401610620565b610a1c611517565b6000610a2760135490565b9050610a37601380546001019055565b610a413382611570565b610ad58160148054610a52906130a9565b80601f0160208091040260200160405190810160405280929190818152602001828054610a7e906130a9565b8015610acb5780601f10610aa057610100808354040283529160200191610acb565b820191906000526020600020905b815481529060010190602001808311610aae57829003601f168201915b505050505061158a565b50610ae06001601255565b565b60006001600160a01b038216610b4c5760405162461bcd60e51b815260206004820152602960248201527f4552433732313a2061646472657373207a65726f206973206e6f7420612076616044820152683634b21037bbb732b960b91b6064820152608401610620565b506001600160a01b031660009081526003602052604090205490565b610b70611655565b610ae060006116af565b6001600160a01b0381166000908152601160205260408120546104ed565b600060608082808083610bcc7f0000000000000000000000000000000000000000000000000000000000000000600c611701565b610bf77f0000000000000000000000000000000000000000000000000000000000000000600d611701565b60408051600080825260208201909252600f60f81b9b939a50919850469750309650945092509050565b6000610c2b610c9b565b65ffffffffffff168210610c785760405162461bcd60e51b81526020600482015260146024820152730566f7465733a20667574757265206c6f6f6b75760641b6044820152606401610620565b610c8c610c848361137e565b6010906113e7565b6001600160e01b031692915050565b6000610798436117ac565b6000610798600b546001600160a01b031690565b606060018054610502906130a9565b6001600160a01b0381166000908152600f60205260408120610c8c90611813565b6109b033838361184e565b610cff338361105b565b610d1b5760405162461bcd60e51b8152600401610620906130dd565b610d278484848461191c565b50505050565b83421115610d7d5760405162461bcd60e51b815260206004820152601860248201527f566f7465733a207369676e6174757265206578706972656400000000000000006044820152606401610620565b604080517fe48329057bfd03d55e49b547132e39cffd9c1820ad7b9d4c5307691425d15adf60208201526001600160a01b038816918101919091526060810186905260808101859052600090610df790610def9060a0016040516020818303038152906040528051906020012061194f565b85858561197c565b9050610e02816119a4565b8614610e475760405162461bcd60e51b8152602060048201526014602482015273566f7465733a20696e76616c6964206e6f6e636560601b6044820152606401610620565b610e5181886114a5565b50505050505050565b60606104ed826119cc565b60148054610e72906130a9565b80601f0160208091040260200160405190810160405280929190818152602001828054610e9e906130a9565b8015610eeb5780601f10610ec057610100808354040283529160200191610eeb565b820191906000526020600020905b815481529060010190602001808311610ece57829003601f168201915b505050505081565b610efb611655565b6001600160a01b038116610f605760405162461bcd60e51b815260206004820152602660248201527f4f776e61626c653a206e6577206f776e657220697320746865207a65726f206160448201526564647265737360d01b6064820152608401610620565b610877816116af565b60006001600160e01b03198216632483248360e11b14806104ed57506104ed82611ad4565b6000818152600260205260409020546001600160a01b03166108775760405162461bcd60e51b8152602060048201526018602482015277115490cdcc8c4e881a5b9d985b1a59081d1bdad95b88125160421b6044820152606401610620565b600081815260046020526040902080546001600160a01b0319166001600160a01b0384169081179091558190611022826109b4565b6001600160a01b03167f8c5be1e5ebec7d5bd14f71427d1e84f3dd0314c0f7b2291e5b200ac8c7c3b92560405160405180910390a45050565b600080611067836109b4565b9050806001600160a01b0316846001600160a01b031614806110ae57506001600160a01b0380821660009081526005602090815260408083209388168352929052205460ff165b806110d25750836001600160a01b03166110c784610585565b6001600160a01b0316145b949350505050565b826001600160a01b03166110ed826109b4565b6001600160a01b0316146111135760405162461bcd60e51b815260040161062090613140565b6001600160a01b0382166111755760405162461bcd60e51b8152602060048201526024808201527f4552433732313a207472616e7366657220746f20746865207a65726f206164646044820152637265737360e01b6064820152608401610620565b6111828383836001611af9565b826001600160a01b0316611195826109b4565b6001600160a01b0316146111bb5760405162461bcd60e51b815260040161062090613140565b600081815260046020908152604080832080546001600160a01b03199081169091556001600160a01b0387811680865260038552838620805460001901905590871680865283862080546001019055868652600290945282852080549092168417909155905184937fddf252ad1be2c89b69c2b068fc378daa952ba7f163c4a11628f55a4df523b3ef91a46106c18383836001611b05565b6000306001600160a01b037f0000000000000000000000000000000000000000000000000000000000000000161480156112ac57507f000000000000000000000000000000000000000000000000000000000000000046145b156112d657507f000000000000000000000000000000000000000000000000000000000000000090565b610798604080517f8b73c3c69bb8fe3d512ecc4cf759cc79239f7b179b0ffacaa9a75d522b39400f60208201527f0000000000000000000000000000000000000000000000000000000000000000918101919091527f000000000000000000000000000000000000000000000000000000000000000060608201524660808201523060a082015260009060c00160405160208183030381529060405280519060200120905090565b600063ffffffff8211156113e35760405162461bcd60e51b815260206004820152602660248201527f53616665436173743a2076616c756520646f65736e27742066697420696e203360448201526532206269747360d01b6064820152608401610620565b5090565b81546000908181600581111561144457600061140284611b11565b61140c908561319b565b60008881526020902090915081015463ffffffff908116908716101561143457809150611442565b61143f8160016131ae565b92505b505b600061145287878585611bf9565b9050801561148e576114778761146960018461319b565b600091825260209091200190565b5464010000000090046001600160e01b0316611491565b60005b979650505050505050565b61087781611c57565b6001600160a01b038281166000818152600e602052604080822080548686166001600160a01b0319821681179092559151919094169392849290917f3134e8a2e6d97e929a7e54011ea5485d7d196dd5f0ba4d4ef95803e8e3fc257f9190a46106c1818361151286611c97565b611ca2565b6002601254036115695760405162461bcd60e51b815260206004820152601f60248201527f5265656e7472616e637947756172643a207265656e7472616e742063616c6c006044820152606401610620565b6002601255565b6109b0828260405180602001604052806000815250611e0e565b6000828152600260205260409020546001600160a01b03166116055760405162461bcd60e51b815260206004820152602e60248201527f45524337323155524953746f726167653a2055524920736574206f66206e6f6e60448201526d32bc34b9ba32b73a103a37b5b2b760911b6064820152608401610620565b6000828152600a6020526040902061161d828261320f565b506040518281527ff8e1a15aba9398e019f0b49df1a4fde98ee17ae345cb5f6b5e2c27f5033e8ce79060200160405180910390a15050565b600b546001600160a01b03163314610ae05760405162461bcd60e51b815260206004820181905260248201527f4f776e61626c653a2063616c6c6572206973206e6f7420746865206f776e65726044820152606401610620565b600b80546001600160a01b038381166001600160a01b0319831681179093556040519116919082907f8be0079c531659141344cd1fd0a4f28419497f9722a3daafe3b4186f6b6457e090600090a35050565b606060ff831461171b5761171483611e41565b90506104ed565b818054611727906130a9565b80601f0160208091040260200160405190810160405280929190818152602001828054611753906130a9565b80156117a05780601f10611775576101008083540402835291602001916117a0565b820191906000526020600020905b81548152906001019060200180831161178357829003601f168201915b505050505090506104ed565b600065ffffffffffff8211156113e35760405162461bcd60e51b815260206004820152602660248201527f53616665436173743a2076616c756520646f65736e27742066697420696e203460448201526538206269747360d01b6064820152608401610620565b805460009080156118445761182d8361146960018461319b565b5464010000000090046001600160e01b0316611847565b60005b9392505050565b816001600160a01b0316836001600160a01b0316036118af5760405162461bcd60e51b815260206004820152601960248201527f4552433732313a20617070726f766520746f2063616c6c6572000000000000006044820152606401610620565b6001600160a01b03838116600081815260056020908152604080832094871680845294825291829020805460ff191686151590811790915591519182527f17307eab39ab6107e8899845ad3d59bd9653f200f220920489ca2b5937696c31910160405180910390a3505050565b6119278484846110da565b61193384848484611e80565b610d275760405162461bcd60e51b8152600401610620906132cf565b60006104ed61195c611253565b8360405161190160f01b8152600281019290925260228201526042902090565b600080600061198d87878787611f7e565b9150915061199a81612042565b5095945050505050565b6001600160a01b03811660009081526011602052604090208054600181018255905b50919050565b60606119d782610f8e565b6000828152600a6020526040812080546119f0906130a9565b80601f0160208091040260200160405190810160405280929190818152602001828054611a1c906130a9565b8015611a695780601f10611a3e57610100808354040283529160200191611a69565b820191906000526020600020905b815481529060010190602001808311611a4c57829003601f168201915b505050505090506000611a8760408051602081019091526000815290565b90508051600003611a99575092915050565b815115611acb578082604051602001611ab3929190613321565b60405160208183030381529060405292505050919050565b6110d28461218c565b60006001600160e01b0319821663780e9d6360e01b14806104ed57506104ed826121ff565b610d278484848461224f565b610d2784848484612383565b600081600003611b2357506000919050565b60006001611b3084612393565b901c6001901b90506001818481611b4957611b49613350565b048201901c90506001818481611b6157611b61613350565b048201901c90506001818481611b7957611b79613350565b048201901c90506001818481611b9157611b91613350565b048201901c90506001818481611ba957611ba9613350565b048201901c90506001818481611bc157611bc1613350565b048201901c90506001818481611bd957611bd9613350565b048201901c905061184781828581611bf357611bf3613350565b04612427565b60005b81831015611c4f576000611c10848461243d565b60008781526020902090915063ffffffff86169082015463ffffffff161115611c3b57809250611c49565b611c468160016131ae565b93505b50611bfc565b509392505050565b611c6081612458565b6000818152600a602052604090208054611c79906130a9565b159050610877576000818152600a6020526040812061087791612cbc565b60006104ed82610ae2565b816001600160a01b0316836001600160a01b031614158015611cc45750600081115b156106c1576001600160a01b03831615611d6c576001600160a01b0383166000908152600f602052604081208190611d0790612505611d0286612511565b61257a565b6001600160e01b031691506001600160e01b03169150846001600160a01b03167fdec2bacdd2f05b59de34da9b523dff8be42e5e38e818c82fdb0bae774387a7248383604051611d61929190918252602082015260400190565b60405180910390a250505b6001600160a01b038216156106c1576001600160a01b0382166000908152600f602052604081208190611da5906125c3611d0286612511565b6001600160e01b031691506001600160e01b03169150836001600160a01b03167fdec2bacdd2f05b59de34da9b523dff8be42e5e38e818c82fdb0bae774387a7248383604051611dff929190918252602082015260400190565b60405180910390a25050505050565b611e1883836125cf565b611e256000848484611e80565b6106c15760405162461bcd60e51b8152600401610620906132cf565b60606000611e4e83612772565b604080516020808252818301909252919250600091906020820181803683375050509182525060208101929092525090565b60006001600160a01b0384163b15611f7657604051630a85bd0160e11b81526001600160a01b0385169063150b7a0290611ec4903390899088908890600401613366565b6020604051808303816000875af1925050508015611eff575060408051601f3d908101601f19168201909252611efc918101906133a3565b60015b611f5c573d808015611f2d576040519150601f19603f3d011682016040523d82523d6000602084013e611f32565b606091505b508051600003611f545760405162461bcd60e51b8152600401610620906132cf565b805181602001fd5b6001600160e01b031916630a85bd0160e11b1490506110d2565b5060016110d2565b6000807f7fffffffffffffffffffffffffffffff5d576e7357a4501ddfe92f46681b20a0831115611fb55750600090506003612039565b6040805160008082526020820180845289905260ff881692820192909252606081018690526080810185905260019060a0016020604051602081039080840390855afa158015612009573d6000803e3d6000fd5b5050604051601f1901519150506001600160a01b03811661203257600060019250925050612039565b9150600090505b94509492505050565b6000816004811115612056576120566133c0565b0361205e5750565b6001816004811115612072576120726133c0565b036120bf5760405162461bcd60e51b815260206004820152601860248201527f45434453413a20696e76616c6964207369676e617475726500000000000000006044820152606401610620565b60028160048111156120d3576120d36133c0565b036121205760405162461bcd60e51b815260206004820152601f60248201527f45434453413a20696e76616c6964207369676e6174757265206c656e677468006044820152606401610620565b6003816004811115612134576121346133c0565b036108775760405162461bcd60e51b815260206004820152602260248201527f45434453413a20696e76616c6964207369676e6174757265202773272076616c604482015261756560f01b6064820152608401610620565b606061219782610f8e565b60006121ae60408051602081019091526000815290565b905060008151116121ce5760405180602001604052806000815250611847565b806121d88461279a565b6040516020016121e9929190613321565b6040516020818303038152906040529392505050565b60006001600160e01b031982166380ac58cd60e01b148061223057506001600160e01b03198216635b5e139f60e01b145b806104ed57506301ffc9a760e01b6001600160e01b03198316146104ed565b60018111156122be5760405162461bcd60e51b815260206004820152603560248201527f455243373231456e756d657261626c653a20636f6e7365637574697665207472604482015274185b9cd9995c9cc81b9bdd081cdd5c1c1bdc9d1959605a1b6064820152608401610620565b816001600160a01b03851661231a5761231581600880546000838152600960205260408120829055600182018355919091527ff3f7a9fe364faab93b216da50a3214154f22a0a2b415b23a84c8169e8b636ee30155565b61233d565b836001600160a01b0316856001600160a01b03161461233d5761233d858261282d565b6001600160a01b03841661235957612354816128ca565b61237c565b846001600160a01b0316846001600160a01b03161461237c5761237c8482612979565b5050505050565b61238e8484836129bd565b610d27565b600080608083901c156123a857608092831c92015b604083901c156123ba57604092831c92015b602083901c156123cc57602092831c92015b601083901c156123de57601092831c92015b600883901c156123f057600892831c92015b600483901c1561240257600492831c92015b600283901c1561241457600292831c92015b600183901c156104ed5760010192915050565b60008183106124365781611847565b5090919050565b600061244c60028484186133d6565b611847908484166131ae565b6000612463826109b4565b9050612473816000846001611af9565b61247c826109b4565b600083815260046020908152604080832080546001600160a01b03199081169091556001600160a01b0385168085526003845282852080546000190190558785526002909352818420805490911690555192935084927fddf252ad1be2c89b69c2b068fc378daa952ba7f163c4a11628f55a4df523b3ef908390a46109b0816000846001611b05565b600061184782846133f8565b60006001600160e01b038211156113e35760405162461bcd60e51b815260206004820152602760248201527f53616665436173743a2076616c756520646f65736e27742066697420696e20326044820152663234206269747360c81b6064820152608401610620565b6000806125b661259861258b610c9b565b65ffffffffffff1661137e565b6125ae6125a488611813565b868863ffffffff16565b879190612a33565b915091505b935093915050565b6000611847828461341f565b6001600160a01b0382166126255760405162461bcd60e51b815260206004820181905260248201527f4552433732313a206d696e7420746f20746865207a65726f20616464726573736044820152606401610620565b6000818152600260205260409020546001600160a01b03161561268a5760405162461bcd60e51b815260206004820152601c60248201527f4552433732313a20746f6b656e20616c7265616479206d696e746564000000006044820152606401610620565b612698600083836001611af9565b6000818152600260205260409020546001600160a01b0316156126fd5760405162461bcd60e51b815260206004820152601c60248201527f4552433732313a20746f6b656e20616c7265616479206d696e746564000000006044820152606401610620565b6001600160a01b038216600081815260036020908152604080832080546001019055848352600290915280822080546001600160a01b0319168417905551839291907fddf252ad1be2c89b69c2b068fc378daa952ba7f163c4a11628f55a4df523b3ef908290a46109b0600083836001611b05565b600060ff8216601f8111156104ed57604051632cd44ac360e21b815260040160405180910390fd5b606060006127a783612a41565b600101905060008167ffffffffffffffff8111156127c7576127c7612f24565b6040519080825280601f01601f1916602001820160405280156127f1576020820181803683370190505b5090508181016020015b600019016f181899199a1a9b1b9c1cb0b131b232b360811b600a86061a8153600a85049450846127fb57509392505050565b6000600161283a84610ae2565b612844919061319b565b600083815260076020526040902054909150808214612897576001600160a01b03841660009081526006602090815260408083208584528252808320548484528184208190558352600790915290208190555b5060009182526007602090815260408084208490556001600160a01b039094168352600681528383209183525290812055565b6008546000906128dc9060019061319b565b600083815260096020526040812054600880549394509092849081106129045761290461312a565b9060005260206000200154905080600883815481106129255761292561312a565b600091825260208083209091019290925582815260099091526040808220849055858252812055600880548061295d5761295d61343f565b6001900381819060005260206000200160009055905550505050565b600061298483610ae2565b6001600160a01b039093166000908152600660209081526040808320868452825280832085905593825260079052919091209190915550565b6001600160a01b0383166129df576129dc60106125c3611d0284612511565b50505b6001600160a01b038216612a01576129fe6010612505611d0284612511565b50505b6001600160a01b038381166000908152600e60205260408082205485841683529120546106c192918216911683611ca2565b6000806125b6858585612b19565b60008072184f03e93ff9f4daa797ed6e38ed64bf6a1f0160401b8310612a805772184f03e93ff9f4daa797ed6e38ed64bf6a1f0160401b830492506040015b6d04ee2d6d415b85acef81000000008310612aac576d04ee2d6d415b85acef8100000000830492506020015b662386f26fc100008310612aca57662386f26fc10000830492506010015b6305f5e1008310612ae2576305f5e100830492506008015b6127108310612af657612710830492506004015b60648310612b08576064830492506002015b600a83106104ed5760010192915050565b825460009081908015612c62576000612b378761146960018561319b565b60408051808201909152905463ffffffff8082168084526401000000009092046001600160e01b031660208401529192509087161015612bb95760405162461bcd60e51b815260206004820152601b60248201527f436865636b706f696e743a2064656372656173696e67206b65797300000000006044820152606401610620565b805163ffffffff808816911603612c025784612bda8861146960018661319b565b80546001600160e01b03929092166401000000000263ffffffff909216919091179055612c52565b6040805180820190915263ffffffff80881682526001600160e01b0380881660208085019182528b54600181018d5560008d81529190912094519151909216640100000000029216919091179101555b6020015192508391506125bb9050565b50506040805180820190915263ffffffff80851682526001600160e01b0380851660208085019182528854600181018a5560008a8152918220955192519093166401000000000291909316179201919091559050816125bb565b508054612cc8906130a9565b6000825580601f10612cd8575050565b601f01602090049060005260206000209081019061087791905b808211156113e35760008155600101612cf2565b6001600160e01b03198116811461087757600080fd5b600060208284031215612d2e57600080fd5b813561184781612d06565b60005b83811015612d54578181015183820152602001612d3c565b50506000910152565b60008151808452612d75816020860160208601612d39565b601f01601f19169290920160200192915050565b6020815260006118476020830184612d5d565b600060208284031215612dae57600080fd5b5035919050565b80356001600160a01b0381168114612dcc57600080fd5b919050565b60008060408385031215612de457600080fd5b612ded83612db5565b946020939093013593505050565b600080600060608486031215612e1057600080fd5b612e1984612db5565b9250612e2760208501612db5565b9150604084013590509250925092565b600060208284031215612e4957600080fd5b61184782612db5565b60ff60f81b881681526000602060e081840152612e7260e084018a612d5d565b8381036040850152612e84818a612d5d565b606085018990526001600160a01b038816608086015260a0850187905284810360c0860152855180825283870192509083019060005b81811015612ed657835183529284019291840191600101612eba565b50909c9b505050505050505050505050565b60008060408385031215612efb57600080fd5b612f0483612db5565b915060208301358015158114612f1957600080fd5b809150509250929050565b634e487b7160e01b600052604160045260246000fd5b60008060008060808587031215612f5057600080fd5b612f5985612db5565b9350612f6760208601612db5565b925060408501359150606085013567ffffffffffffffff80821115612f8b57600080fd5b818701915087601f830112612f9f57600080fd5b813581811115612fb157612fb1612f24565b604051601f8201601f19908116603f01168101908382118183101715612fd957612fd9612f24565b816040528281528a6020848701011115612ff257600080fd5b82602086016020830137600060208483010152809550505050505092959194509250565b60008060008060008060c0878903121561302f57600080fd5b61303887612db5565b95506020870135945060408701359350606087013560ff8116811461305c57600080fd5b9598949750929560808101359460a0909101359350915050565b6000806040838503121561308957600080fd5b61309283612db5565b91506130a060208401612db5565b90509250929050565b600181811c908216806130bd57607f821691505b6020821081036119c657634e487b7160e01b600052602260045260246000fd5b6020808252602d908201527f4552433732313a2063616c6c6572206973206e6f7420746f6b656e206f776e6560408201526c1c881bdc88185c1c1c9bdd9959609a1b606082015260800190565b634e487b7160e01b600052603260045260246000fd5b60208082526025908201527f4552433732313a207472616e736665722066726f6d20696e636f72726563742060408201526437bbb732b960d91b606082015260800190565b634e487b7160e01b600052601160045260246000fd5b818103818111156104ed576104ed613185565b808201808211156104ed576104ed613185565b601f8211156106c157600081815260208120601f850160051c810160208610156131e85750805b601f850160051c820191505b81811015613207578281556001016131f4565b505050505050565b815167ffffffffffffffff81111561322957613229612f24565b61323d8161323784546130a9565b846131c1565b602080601f831160018114613272576000841561325a5750858301515b600019600386901b1c1916600185901b178555613207565b600085815260208120601f198616915b828110156132a157888601518255948401946001909101908401613282565b50858210156132bf5787850151600019600388901b60f8161c191681555b5050505050600190811b01905550565b60208082526032908201527f4552433732313a207472616e7366657220746f206e6f6e20455243373231526560408201527131b2b4bb32b91034b6b83632b6b2b73a32b960711b606082015260800190565b60008351613333818460208801612d39565b835190830190613347818360208801612d39565b01949350505050565b634e487b7160e01b600052601260045260246000fd5b6001600160a01b038581168252841660208201526040810183905260806060820181905260009061339990830184612d5d565b9695505050505050565b6000602082840312156133b557600080fd5b815161184781612d06565b634e487b7160e01b600052602160045260246000fd5b6000826133f357634e487b7160e01b600052601260045260246000fd5b500490565b6001600160e01b0382811682821603908082111561341857613418613185565b5092915050565b6001600160e01b0381811683821601908082111561341857613418613185565b634e487b7160e01b600052603160045260246000fdfea2646970667358221220b6dc7d25a6aae57d321b8f37b854ae246253b428acedc8e8a7802ae070f71f3e64736f6c63430008130033",
  "devdoc": {
    "events": {
      "Approval(address,address,uint256)": {
        "details": "Emitted when `owner` enables `approved` to manage the `tokenId` token."
      },
      "ApprovalForAll(address,address,bool)": {
        "details": "Emitted when `owner` enables or disables (`approved`) `operator` to manage all of its assets."
      },
      "BatchMetadataUpdate(uint256,uint256)": {
        "details": "This event emits when the metadata of a range of tokens is changed. So that the third-party platforms such as NFT market could timely update the images and related attributes of the NFTs."
      },
      "DelegateChanged(address,address,address)": {
        "details": "Emitted when an account changes their delegate."
      },
      "DelegateVotesChanged(address,uint256,uint256)": {
        "details": "Emitted when a token transfer or delegate change results in changes to a delegate's number of votes."
      },
      "EIP712DomainChanged()": {
        "details": "MAY be emitted to signal that the domain could have changed."
      },
      "MetadataUpdate(uint256)": {
        "details": "This event emits when the metadata of a token is changed. So that the third-party platforms such as NFT market could timely update the images and related attributes of the NFT."
      },
      "Transfer(address,address,uint256)": {
        "details": "Emitted when `tokenId` token is transferred from `from` to `to`."
      }
    },
    "kind": "dev",
    "methods": {
      "CLOCK_MODE()": {
        "details": "Machine-readable description of the clock as specified in EIP-6372."
      },
      "DOMAIN_SEPARATOR()": {
        "details": "Returns the contract's {EIP712} domain separator."
      },
      "approve(address,uint256)": {
        "details": "See {IERC721-approve}."
      },
      "balanceOf(address)": {
        "details": "See {IERC721-balanceOf}."
      },
      "burn(uint256)": {
        "details": "Burns `tokenId`. See {ERC721-_burn}. Requirements: - The caller must own `tokenId` or be an approved operator."
      },
      "clock()": {
        "details": "Clock used for flagging checkpoints. Can be overridden to implement timestamp based checkpoints (and voting), in which case {CLOCK_MODE} should be overridden as well to match."
      },
      "delegate(address)": {
        "details": "Delegates votes from the sender to `delegatee`."
      },
      "delegateBySig(address,uint256,uint256,uint8,bytes32,bytes32)": {
        "details": "Delegates votes from signer to `delegatee`."
      },
      "delegates(address)": {
        "details": "Returns the delegate that `account` has chosen."
      },
      "eip712Domain()": {
        "details": "See {EIP-5267}. _Available since v4.9._"
      },
      "getApproved(uint256)": {
        "details": "See {IERC721-getApproved}."
      },
      "getPastTotalSupply(uint256)": {
        "details": "Returns the total supply of votes available at a specific moment in the past. If the `clock()` is configured to use block numbers, this will return the value at the end of the corresponding block. NOTE: This value is the sum of all available votes, which is not necessarily the sum of all delegated votes. Votes that have not been delegated are still part of total supply, even though they would not participate in a vote. Requirements: - `timepoint` must be in the past. If operating using block numbers, the block must be already mined."
      },
      "getPastVotes(address,uint256)": {
        "details": "Returns the amount of votes that `account` had at a specific moment in the past. If the `clock()` is configured to use block numbers, this will return the value at the end of the corresponding block. Requirements: - `timepoint` must be in the past. If operating using block numbers, the block must be already mined."
      },
      "getVotes(address)": {
        "details": "Returns the current amount of votes that `account` has."
      },
      "isApprovedForAll(address,address)": {
        "details": "See {IERC721-isApprovedForAll}."
      },
      "name()": {
        "details": "See {IERC721Metadata-name}."
      },
      "nonces(address)": {
        "details": "Returns an address nonce."
      },
      "owner()": {
        "details": "Returns the address of the current owner."
      },
      "ownerOf(uint256)": {
        "details": "See {IERC721-ownerOf}."
      },
      "renounceOwnership()": {
        "details": "Leaves the contract without owner. It will not be possible to call `onlyOwner` functions. Can only be called by the current owner. NOTE: Renouncing ownership will leave the contract without an owner, thereby disabling any functionality that is only available to the owner."
      },
      "safeTransferFrom(address,address,uint256)": {
        "details": "See {IERC721-safeTransferFrom}."
      },
      "safeTransferFrom(address,address,uint256,bytes)": {
        "details": "See {IERC721-safeTransferFrom}."
      },
      "setApprovalForAll(address,bool)": {
        "details": "See {IERC721-setApprovalForAll}."
      },
      "symbol()": {
        "details": "See {IERC721Metadata-symbol}."
      },
      "tokenByIndex(uint256)": {
        "details": "See {IERC721Enumerable-tokenByIndex}."
      },
      "tokenOfOwnerByIndex(address,uint256)": {
        "details": "See {IERC721Enumerable-tokenOfOwnerByIndex}."
      },
      "totalSupply()": {
        "details": "See {IERC721Enumerable-totalSupply}."
      },
      "transferFrom(address,address,uint256)": {
        "details": "See {IERC721-transferFrom}."
      },
      "transferOwnership(address)": {
        "details": "Transfers ownership of the contract to a new account (`newOwner`). Can only be called by the current owner."
      }
    },
    "version": 1
  },
  "userdoc": {
    "kind": "user",
    "methods": {},
    "version": 1
  },
  "storageLayout": {
    "storage": [
      {
        "astId": 909,
        "contract": "contracts/Strat.sol:Strat",
        "label": "_name",
        "offset": 0,
        "slot": "0",
        "type": "t_string_storage"
      },
      {
        "astId": 911,
        "contract": "contracts/Strat.sol:Strat",
        "label": "_symbol",
        "offset": 0,
        "slot": "1",
        "type": "t_string_storage"
      },
      {
        "astId": 915,
        "contract": "contracts/Strat.sol:Strat",
        "label": "_owners",
        "offset": 0,
        "slot": "2",
        "type": "t_mapping(t_uint256,t_address)"
      },
      {
        "astId": 919,
        "contract": "contracts/Strat.sol:Strat",
        "label": "_balances",
        "offset": 0,
        "slot": "3",
        "type": "t_mapping(t_address,t_uint256)"
      },
      {
        "astId": 923,
        "contract": "contracts/Strat.sol:Strat",
        "label": "_tokenApprovals",
        "offset": 0,
        "slot": "4",
        "type": "t_mapping(t_uint256,t_address)"
      },
      {
        "astId": 929,
        "contract": "contracts/Strat.sol:Strat",
        "label": "_operatorApprovals",
        "offset": 0,
        "slot": "5",
        "type": "t_mapping(t_address,t_mapping(t_address,t_bool))"
      },
      {
        "astId": 1989,
        "contract": "contracts/Strat.sol:Strat",
        "label": "_ownedTokens",
        "offset": 0,
        "slot": "6",
        "type": "t_mapping(t_address,t_mapping(t_uint256,t_uint256))"
      },
      {
        "astId": 1993,
        "contract": "contracts/Strat.sol:Strat",
        "label": "_ownedTokensIndex",
        "offset": 0,
        "slot": "7",
        "type": "t_mapping(t_uint256,t_uint256)"
      },
      {
        "astId": 1996,
        "contract": "contracts/Strat.sol:Strat",
        "label": "_allTokens",
        "offset": 0,
        "slot": "8",
        "type": "t_array(t_uint256)dyn_storage"
      },
      {
        "astId": 2000,
        "contract": "contracts/Strat.sol:Strat",
        "label": "_allTokensIndex",
        "offset": 0,
        "slot": "9",
        "type": "t_mapping(t_uint256,t_uint256)"
      },
      {
        "astId": 2344,
        "contract": "contracts/Strat.sol:Strat",
        "label": "_tokenURIs",
        "offset": 0,
        "slot": "10",
        "type": "t_mapping(t_uint256,t_string_storage)"
      },
      {
        "astId": 7,
        "contract": "contracts/Strat.sol:Strat",
        "label": "_owner",
        "offset": 0,
        "slot": "11",
        "type": "t_address"
      },
      {
        "astId": 5519,
        "contract": "contracts/Strat.sol:Strat",
        "label": "_nameFallback",
        "offset": 0,
        "slot": "12",
        "type": "t_string_storage"
      },
      {
        "astId": 5521,
        "contract": "contracts/Strat.sol:Strat",
        "label": "_versionFallback",
        "offset": 0,
        "slot": "13",
        "type": "t_string_storage"
      },
      {
        "astId": 221,
        "contract": "contracts/Strat.sol:Strat",
        "label": "_delegation",
        "offset": 0,
        "slot": "14",
        "type": "t_mapping(t_address,t_address)"
      },
      {
        "astId": 227,
        "contract": "contracts/Strat.sol:Strat",
        "label": "_delegateCheckpoints",
        "offset": 0,
        "slot": "15",
        "type": "t_mapping(t_address,t_struct(Trace224)3469_storage)"
      },
      {
        "astId": 231,
        "contract": "contracts/Strat.sol:Strat",
        "label": "_totalCheckpoints",
        "offset": 0,
        "slot": "16",
        "type": "t_struct(Trace224)3469_storage"
      },
      {
        "astId": 236,
        "contract": "contracts/Strat.sol:Strat",
        "label": "_nonces",
        "offset": 0,
        "slot": "17",
        "type": "t_mapping(t_address,t_struct(Counter)4497_storage)"
      },
      {
        "astId": 829,
        "contract": "contracts/Strat.sol:Strat",
        "label": "_status",
        "offset": 0,
        "slot": "18",
        "type": "t_uint256"
      },
      {
        "astId": 8286,
        "contract": "contracts/Strat.sol:Strat",
        "label": "_tokenIdCounter",
        "offset": 0,
        "slot": "19",
        "type": "t_struct(Counter)4497_storage"
      },
      {
        "astId": 8288,
        "contract": "contracts/Strat.sol:Strat",
        "label": "uri",
        "offset": 0,
        "slot": "20",
        "type": "t_string_storage"
      }
    ],
    "types": {
      "t_address": {
        "encoding": "inplace",
        "label": "address",
        "numberOfBytes": "20"
      },
      "t_array(t_struct(Checkpoint224)3474_storage)dyn_storage": {
        "base": "t_struct(Checkpoint224)3474_storage",
        "encoding": "dynamic_array",
        "label": "struct Checkpoints.Checkpoint224[]",
        "numberOfBytes": "32"
      },
      "t_array(t_uint256)dyn_storage": {
        "base": "t_uint256",
        "encoding": "dynamic_array",
        "label": "uint256[]",
        "numberOfBytes": "32"
      },
      "t_bool": {
        "encoding": "inplace",
        "label": "bool",
        "numberOfBytes": "1"
      },
      "t_mapping(t_address,t_address)": {
        "encoding": "mapping",
        "key": "t_address",
        "label": "mapping(address => address)",
        "numberOfBytes": "32",
        "value": "t_address"
      },
      "t_mapping(t_address,t_bool)": {
        "encoding": "mapping",
        "key": "t_address",
        "label": "mapping(address => bool)",
        "numberOfBytes": "32",
        "value": "t_bool"
      },
      "t_mapping(t_address,t_mapping(t_address,t_bool))": {
        "encoding": "mapping",
        "key": "t_address",
        "label": "mapping(address => mapping(address => bool))",
        "numberOfBytes": "32",
        "value": "t_mapping(t_address,t_bool)"
      },
      "t_mapping(t_address,t_mapping(t_uint256,t_uint256))": {
        "encoding": "mapping",
        "key": "t_address",
        "label": "mapping(address => mapping(uint256 => uint256))",
        "numberOfBytes": "32",
        "value": "t_mapping(t_uint256,t_uint256)"
      },
      "t_mapping(t_address,t_struct(Counter)4497_storage)": {
        "encoding": "mapping",
        "key": "t_address",
        "label": "mapping(address => struct Counters.Counter)",
        "numberOfBytes": "32",
        "value": "t_struct(Counter)4497_storage"
      },
      "t_mapping(t_address,t_struct(Trace224)3469_storage)": {
        "encoding": "mapping",
        "key": "t_address",
        "label": "mapping(address => struct Checkpoints.Trace224)",
        "numberOfBytes": "32",
        "value": "t_struct(Trace224)3469_storage"
      },
      "t_mapping(t_address,t_uint256)": {
        "encoding": "mapping",
        "key": "t_address",
        "label": "mapping(address => uint256)",
        "numberOfBytes": "32",
        "value": "t_uint256"
      },
      "t_mapping(t_uint256,t_address)": {
        "encoding": "mapping",
        "key": "t_uint256",
        "label": "mapping(uint256 => address)",
        "numberOfBytes": "32",
        "value": "t_address"
      },
      "t_mapping(t_uint256,t_string_storage)": {
        "encoding": "mapping",
        "key": "t_uint256",
        "label": "mapping(uint256 => string)",
        "numberOfBytes": "32",
        "value": "t_string_storage"
      },
      "t_mapping(t_uint256,t_uint256)": {
        "encoding": "mapping",
        "key": "t_uint256",
        "label": "mapping(uint256 => uint256)",
        "numberOfBytes": "32",
        "value": "t_uint256"
      },
      "t_string_storage": {
        "encoding": "bytes",
        "label": "string",
        "numberOfBytes": "32"
      },
      "t_struct(Checkpoint224)3474_storage": {
        "encoding": "inplace",
        "label": "struct Checkpoints.Checkpoint224",
        "members": [
          {
            "astId": 3471,
            "contract": "contracts/Strat.sol:Strat",
            "label": "_key",
            "offset": 0,
            "slot": "0",
            "type": "t_uint32"
          },
          {
            "astId": 3473,
            "contract": "contracts/Strat.sol:Strat",
            "label": "_value",
            "offset": 4,
            "slot": "0",
            "type": "t_uint224"
          }
        ],
        "numberOfBytes": "32"
      },
      "t_struct(Counter)4497_storage": {
        "encoding": "inplace",
        "label": "struct Counters.Counter",
        "members": [
          {
            "astId": 4496,
            "contract": "contracts/Strat.sol:Strat",
            "label": "_value",
            "offset": 0,
            "slot": "0",
            "type": "t_uint256"
          }
        ],
        "numberOfBytes": "32"
      },
      "t_struct(Trace224)3469_storage": {
        "encoding": "inplace",
        "label": "struct Checkpoints.Trace224",
        "members": [
          {
            "astId": 3468,
            "contract": "contracts/Strat.sol:Strat",
            "label": "_checkpoints",
            "offset": 0,
            "slot": "0",
            "type": "t_array(t_struct(Checkpoint224)3474_storage)dyn_storage"
          }
        ],
        "numberOfBytes": "32"
      },
      "t_uint224": {
        "encoding": "inplace",
        "label": "uint224",
        "numberOfBytes": "28"
      },
      "t_uint256": {
        "encoding": "inplace",
        "label": "uint256",
        "numberOfBytes": "32"
      },
      "t_uint32": {
        "encoding": "inplace",
        "label": "uint32",
        "numberOfBytes": "4"
      }
    }
  }
}